:020000040001F9
:10C00000984F00208DC4010095C4010097C4010021
:10C0100099C401009BC401009DC401000000000000
:10C020000000000000000000000000009FC40100AC
:10C03000A1C4010000000000A3C40100A5C40100C8
:10C04000A7C40100A7C401003DCE0100A7C40100A0
:10C05000A7C40100A7C4010091C50100A7C4010045
:10C06000A7C40100A7C40100A7C40100A7C4010020
:10C07000A7C40100A7C40100A7C40100A7C4010010
:10C08000A7C40100B9C70100A7C40100A7C40100EB
:10C09000A1CB0100A7C40100A9CB0100A7C40100E6
:10C0A000A7C40100A7C40100A7C40100A7C40100E0
:10C0B000A7C40100A7C401000000000000000000A8
:10C0C000A7C40100A7C40100A7C4010089CB0100D7
:10C0D000A7C40100A7C40100A7C40100000000001C
:10C0E0000000000000000000000000000000000050
:10C0F0000000000000000000000000000000000040
:10C10000000000000000000000000000000000002F
:10C11000000000000000000000000000000000001F
:10C40000DFF80CD000F086F800480047F107020082
:10C41000984F0020401E00BF00BF00BF00BF00BFFC
:10C4200000BF00BF00BF00BF00BF00BF00BF00BF14
:10C4300000BF00BF00BF00BF00BF00BF00BF00BF04
:10C4400000BF00BF00BF00BF00BF00BF00BF00BFF4
:10C4500000BF00BF00BF00BF00BF00BF00BF00BFE4
:10C4600000BF00BF00BF00BF00BF00BF00BF00BFD4
:10C4700000BF00BF00BF00BF00BF00BF00BF00BFC4
:10C4800000BF00BF00BFC5D170470000064880470D
:10C4900006480047FEE7FEE7FEE7FEE7FEE7FEE7A9
:10C4A000FEE7FEE7FEE7FEE7F1CB010001C4010075
:10C4B00040EA01039B0703D009E008C9121F08C026
:10C4C000042AFAD203E011F8013B00F8013B521EA6
:10C4D000F9D27047D2B201E000F8012B491EFBD21D
:10C4E00070470022F6E710B513460A46044619467F
:10C4F000FFF7F0FF204610BD30B50446002003468C
:10C5000000E05B1C934203D2E05CCD5C401BF8D0A2
:10C5100030BD0000064C074D06E0E06840F0010326
:10C5200094E8070098471034AC42F6D3FFF76CFF4D
:10C53000443402006434020070B58C1810F8015BBA
:10C5400015F0070301D110F8013B2A1106D110F8AC
:10C55000012B03E010F8016B01F8016B5B1EF9D1B0
:10C560002B0705D40023521E0DD401F8013BFAE736
:10C5700010F8013BCB1A921C03E013F8015B01F8A1
:10C58000015B521EF9D5A142D8D3002070BD000036
:10C590002DE9F04F87B00027BA464FF4807006901F
:10C5A0000125002412E0069804F09CFE40B100BF73
:10C5B00060480068284018B1069804F085FE2F43B3
:10C5C0006D000698001D80B20690641C082CEAD30A
:10C5D0004FF4BE7004F086FE48B14FF4BE7004F014
:10C5E00073FE47F0004700BF534800688246F8B228
:10C5F000F8B1012500241AE005EA0700A8B100BF40
:10C600004E4850F82400C0F30420064600BF4B48B3
:10C6100050F82400C0F301408046204602F060F844
:10C62000814641463046C84700BF6D00641C082C57
:10C63000E2D307F00040002879D04FF0000B002033
:10C640000590401E049000BF4FF0000B002457E0FF
:10C650003B48005D0390039820F0C006384800571F
:10C66000401C00284BD00120B0400499084000280D
:10C6700045D003984FEA9019304602F079F8804689
:10C6800002F02EF80290029810B9B9F1030F35D1DB
:10C69000012000FA06F5B9F1030F02D105982843ED
:10C6A000059000BF274850F82600C0F3014800BF9E
:10C6B00005EA0A0010B1B8F1020F05D005EA0A0038
:10C6C000D8B9B8F1030F18D1B9F1030F0FD1B8F1F0
:10C6D000020F01D1032000E00220019030460199B1
:10C6E00004F0BAFD0BF1010000F0FF0B00BF02984F
:10C6F00018B149463046029A904700BF00BF641CFB
:10C70000042CA5D3BBF1000F0DD000BF0A49096866
:10C710000846504503D14FF0000B03E007E0824686
:10C720000599049100BFBBF1000F8DD100BF07B088
:10C73000BDE8F08F04630040100500501065004014
:10C74000D82900200007005000F01F02012191406D
:10C75000024A430942F823107047000080E200E0DB
:10C7600000F01F02012191404209920002F1E022F3
:10C77000C2F800117047000000F01F020121914033
:10C78000024A430942F823107047000000E200E02B
:10C7900010B5002807DA4A07140E054A00F00F0307
:10C7A0001B1FD45403E04A07130E024A135410BD52
:10C7B00018ED00E000E400E010B500200949086031
:10C7C00000210948C0F84411C0F84811C0F84C11C4
:10C7D00000200549C1F8000102493C39086006F013
:10C7E000B3F910BD40110140001001402DE9F047A0
:10C7F00004468946164600F02DFB04EB44015648DA
:10C8000000EBC100007D00F00300022827D004EBFC
:10C810004401514800EBC100D0F8108004EB440102
:10C820004D4800EBC100C068A8EB0000451E002D7C
:10C8300006DA04EB4401484800EBC1008068054477
:10C84000AE420CDD04EB4401434800EBC100007D27
:10C8500000F0030010B90020BDE8F0872E460EB9A5
:10C860000020F9E7002700BF04EB44013A4800EB41
:10C87000C100D0F8108004EB4401374800EBC10040
:10C88000C068A8EB0000451E002D06DA04EB440149
:10C89000314800EBC1008068054404EB44012E4898
:10C8A00000EBC10004EB440281682B4800EBC2009E
:10C8B000C068081AA84201DD28460CE004EB4401D8
:10C8C000254800EBC10004EB44028168224800EBDC
:10C8D000C200C068081A0546B54201DA284600E0E1
:10C8E0003046054604EB44021B4901EBC20104EB50
:10C8F00044034A68184901EBC301C96850182A4625
:10C900004946FFF7D5FD2F44A944761B04EB4401AB
:10C91000114800EBC100C068411904EB44020E4805
:10C9200000EBC200C16004EB44010B4800EBC10006
:10C93000C16804EB4402084800EBC20080688142F1
:10C9400006D1002104EB4402034800EBC200C160A1
:10C95000002E89D138467FE7EC21002070B50546CE
:10C960000C46204600F097FB0646324621462846F4
:10C97000FFF73CFF70BD0FB438B5044606A8009021
:10C980006A462046059900F003F838BC5DF814FBB0
:10C990002DE9F04F99B081460D46144603A8149036
:10C9A0004020159000201690CDF86090179000BFA1
:10C9B00015F8016B06B9D4E0252E73D1002700BF0E
:10C9C0002E78232E12D02B2E0CD02D2E02D0302ECE
:10C9D00010D103E047F001076D1C0CE047F002079F
:10C9E0006D1C08E047F004076D1C04E047F00807E1
:10C9F0006D1C00E001E000BFE2E74FF0000800BF5F
:10CA00002E78302E01DB392E00DD07E06D1CA6F1FB
:10CA1000300008EB880100EB4108F1E700BF00207F
:10CA200013902E782E2E12D16D1C00BF2E78302E32
:10CA300001DB392E00DD09E06D1CA6F130001399F1
:10CA400001EB810100EB41001390EFE700BF2E786E
:10CA500000BF6C2E01D0682E02D115F8016B00E0EA
:10CA600000E0F6E700BF702E5BD008DC252E68D012
:10CA7000582E35D0632E09D0642E67D113E0732E63
:10CA80003CD0752E1DD0782E60D128E02168081D7D
:10CA90002060D1F800A00AF0FF0B594614A800F05E
:10CAA000C9FA53E055E02168081D2060D1F800A0C4
:10CAB000CDE900870A22514614A8139B00F0CBF958
:10CAC00044E02168081D2060D1F800A0CDE900876E
:10CAD0000A22514614A8139B00F032FA36E000BF38
:10CAE0002168081D2060D1F800A0CDE90087102240
:10CAF000514614A8139B00F023FA27E02168081D73
:10CB00002060D1F800B000BF1BF8016B06B906E049
:10CB1000314614A800F08EFA17980028F4DA00BF06
:10CB200014E02168081D2060D1F800A00020082131
:10CB30000B461022CDE90010514614A800F000FA6F
:10CB400004E0252114A800F075FA00BF00BF6D1C99
:10CB500003E0314614A800F06DFA17980028BFF6DC
:10CB600027AF00BF179800280ADD169820B103A947
:10CB70004846169AFFF73AFEDDE91610084417906A
:10CB8000179819B0BDE8F08F10B5034C2146034843
:10CB900003F0A6FC10BD0000C42A002000300240B3
:10CBA00010B505F0B5FE10BD70B50B48006880B13A
:10CBB000094800688047044600BF25463DB100BFD4
:10CBC000064A4FF4B371284600F0E7FB00BF00BFF0
:10CBD00001E003F02DFC70BDBC210020E033020019
:10CBE00001480249086070470090D003502200209D
:10CBF00010B503F075F810B182488349486703F017
:10CC000087F828B181480068C0F342308049086045
:10CC100003F0A8F828B17F48006820F080707D49B3
:10CC2000086003F0B7F848B100207B4908604FF076
:10CC30008041C1F810017649091F086003F0D4F85B
:10CC400018B1032072496431086003F0E5F868B157
:10CC50000520724908600120704978310860002081
:10CC60006E49083108603F20091F086003F0ECF8A6
:10CC7000002855D06A4800686A4908606848001D65
:10CC80000068091D0860664808300068091D0860D2
:10CC900063480C300068091D086061481030006866
:10CCA000091D08605E4814300068091D08605C4872
:10CCB000183000685B492031086059481C30006812
:10CCC000091D0860564820300068091D0860544856
:10CCD00024300068091D0860514828300068091D8B
:10CCE00008604F482C300068091D08604C483030FF
:10CCF00000684C4940310860494834300068091DDB
:10CD00000860474838300068091D086044483C30D6
:10CD10000068091D0860424840300068091D08602D
:10CD200002F0B4FF30B139481430006800F04F0011
:10CD30003D49086037487438006840F47000354950
:10CD40007439086000BF00BF00BFBFF34F8F00BF42
:10CD500000BF00BF00BF00BF00BFBFF36F8F00BFA9
:10CD600000BF00BF3148006800F0004030B92F48D4
:10CD7000001D006800F00040002840D001202C4930
:10CD8000086000BF2B4800680028FBD01520274909
:10CD9000086000BF274800680028FBD01521234801
:10CDA000001D016000BF234800680028FBD0002060
:10CDB0001F49086000BF1F4800680028FBD000BF63
:10CDC00000BF00BF00BF00BFBFF34F8F00BF00BF59
:10CDD00000BF1048F038006800F4E06016490843CE
:10CDE000001D0C49F039086000BF00BF00BFBFF351
:10CDF0004F8F00BF00BF00BF00BF00BFFDE7FFF7C0
:10CE0000EFFE10BD0DF0ADBA00C0074044020010A7
:10CE10003C050040FCED00E00C01004010560040D5
:10CE20000404001020C50040E40E00400012001071
:10CE300004E5014000E401400000FA0510B5044893
:10CE4000007F10B106F052F801E005F09FFF10BD21
:10CE5000E42A002070472DE9FC5F07460E46924603
:10CE60009846DDE90C45002E01DA704200E03046BC
:10CE700083464FF0010903E0BBFBFAFB09F101090E
:10CE8000D345F9D2C84500D9C14634B1002E03DBE1
:10CE900005F00400042800D1641E05F0020010B162
:10CEA000B8F1000F12D005F0010078B974B108E0B4
:10CEB0002021384600F0BEF8F868002801DABDE805
:10CEC000FC9F1CB12046641E4845F1D8002E08DAAC
:10CED00076422D21384600F0ADF8F86800280CDACB
:10CEE000EDE705F00400042807D12B21384600F0B7
:10CEF000A1F8F868002800DAE1E705F0020002284E
:10CF000014D105F0010088B9B8F1000F0ED16CB151
:10CF100007E03021384600F08DF8F868002800DA84
:10CF2000CDE71CB12046641E4845F2D84346524620
:10CF300031463846CDE9004500F002F800BFBEE7B3
:10CF40002DE9FE4F81460F4614469846DDE90C5BFD
:10CF500001260197B24605E00198B0FBF4F001907C
:10CF60000AF1010A0198A042F6D2D04500D9C24682
:10CF70000BF00100E0B9DDB10BF00200022805D191
:10CF8000B8F1000F02D13020009001E02020009085
:10CF900009E04846009900F04DF8D9F80C00002847
:10CFA00001DABDE8FE8F1DB128466D1E5045F0D850
:10CFB00000E06643B7FBF6F0A04201D3012000E099
:10CFC00000204146A8F10108012901DD012100E00E
:10CFD000002108430028ECD100BFB7FBF6F0029017
:10CFE000029800FB1677124A0298115C484600F03E
:10CFF00021F8D9F80C00002800DA03E0B6FBF4F6BB
:10D00000002EEAD100BF0BF0010078B175B108E045
:10D010002021484600F00EF8D9F80C00002800DA6C
:10D02000BFE71DB128466D1E5045F1D800BFB8E7D7
:10D030008433020070B504460E46A568681C61681A
:10D04000814206DB20684655681CA060E068401CF1
:10D05000E060D4E9011088420DD1A26821682069FE
:10D06000FFF7C4FBA168884203D04FF0FF30E060B7
:10D0700001E00020A06070BD02E008C8121F08C1D6
:10D08000002AFAD170477047002001E001C1121F49
:10D09000002AFBD170470146002209B900207047E1
:10D0A00000BF087800B902E0521C491CF9E700BF34
:10D0B0001046F4E73EB51248006803F033FF11A0B4
:10D0C0000068029002AC01AD112003F02BFF02209A
:10D0D0002B460246214600900B4804F03FF800E042
:10D0E00020BF0A4800780028FAD0112003F086FFFC
:10D0F00000200649087006A1FFF730FC3EBD000085
:10D10000CC2000200B00000098320200A12000205B
:10D110004144584C20696E746572727570740A00CF
:10D120002DE9FC4104468846164600253788002034
:10D130003080606B68B1616B08783B46324641468F
:10D1400005F01AF8054600BF15B12846BDE8FC8178
:10D1500000BF206B58B13B4632464146206B05F07C
:10D160006FFD054600BF0DB12846EFE700BF94F8FC
:10D170002E0060B194F82E003B463246414603F043
:10D180002FFA054600BF0DB12846DFE700BF94F82F
:10D190002D0050B13A463146404600F0D2FD0546DA
:10D1A00000BF0DB12846D1E700BFA07850B13A4684
:10D1B0003146404600F042FA054600BF0DB1284610
:10D1C000C4E700BFE07860B1E17848B23B46324640
:10D1D000414602F08CFE054600BF0DB12846B5E77A
:10D1E00000BF606868B1616891F900003B46324653
:10D1F000414605F0AFFD054600BF0DB12846A5E745
:10D2000000BF208900280EDD43460622022104F1DA
:10D210000800CDE9006705F0A1FF054600BF0DB18C
:10D22000284693E700BF208A00280EDD43460722E8
:10D23000032104F11000CDE9006705F08FFF0546DA
:10D2400000BF0DB1284681E700BF208B00280EDD0E
:10D2500043461522142104F11800CDE9006705F0BA
:10D260007DFF054600BF0DB128466FE700BF206A6D
:10D2700058B13B4632464146206A01F068FC0546FB
:10D2800000BF0DB1284661E700BF606A58B13B4658
:10D2900032464146606A03F073FC054600BF0DB19B
:10D2A000284653E700BF94F82C0000280BDD3B46CE
:10D2B00032464146204604F07AFF054600BF0DB1D4
:10D2C000284643E700BF207858B13B4632464146E6
:10D2D000204603F090FC054600BF0DB1284635E717
:10D2E00000BF284632E70146C87800F0040008B9BC
:10D2F000072070470020FCE730B5A7B0382119A8F7
:10D30000FFF7EFF802208DF8640006208DF8670023
:10D31000242110A8FFF7E5F801208DF84C004FF408
:10D32000967014903C201590382102A8FFF7D9F888
:10D330000120ADF818000C49079100200B4B10AAF2
:10D3400002A9009019A800F0F9F9044600BF25468B
:10D350003DB100BF06A24FF41D71284600F01DF834
:10D3600000BF00BF27B030BD02210020891302009A
:10D370002E2E5C2E2E5C2E2E5C6D61696E2E63004F
:10D3800070B504460D4616460C2000F0BBFE324632
:10D390002946204600F012F870BDFEB504460E4640
:10D3A0001546B0B2ADF80000019502946A4600211E
:10D3B00044F20100FFF7E4FFFEBD000018B50123B1
:10D3C00000939DF800301E4B186059609A606FF40E
:10D3D0008043034463B1012B19D1194BDA60DB6838
:10D3E0001B88174CA3612346DB685B68E3610EE092
:10D3F000134B1A611B699B68114C636123461B69BF
:10D400001B88A36123461B695B68E36100BF00BF03
:10D410000B4B1B680A4B5B68094B9B68084BDB682E
:10D42000074B1B69064B5B69054B9B69044BDB692A
:10D4300072B600BF9DF80030002BFBD162B618BD5C
:10D44000042B00202DE9F04104460D461646044801
:10D450000768324629462046B847BDE8F0810000FB
:10D4600064290020F8B505460C462778A06800EB33
:10D470004000064951F820600548006800902A469F
:10D48000394604F108002369B047F8BDAC2A0020F2
:10D490009021002010B504460748007800EB800278
:10D4A0000548001D00EB82012046FFF7DBFF04204A
:10D4B00004F0D0FE10BD0000E029002010B50346A6
:10D4C0000C4600BF0B48006808B9082010BD00BF1B
:10D4D0000AB90720FAE70BB90720F7E71868007CBC
:10D4E00008B10820F2E71968002008744C744A61FA
:10D4F00000BFEBE79C2100202DE9F04180460E465D
:10D5000014461F46204600F0030109B9012100E03E
:10D51000002111B90720BDE8F08124B900201D4980
:10D5200008600720F7E704F04BFD1B480760032065
:10D530001A49087017480460183400250DE0154991
:10D54000096801EBC50000210170417086704460DC
:10D5500006EB460104EBC1046D1C032DEFDB00203C
:10D560000F4908600F4908700F4908701420FFF731
:10D57000EBF806211420FFF70BF91420FFF7F0F861
:10D58000404604F0F3FC04F0EBFC0849086000207E
:10D59000C1E700009C210020B42100209821002038
:10D5A000A0210020B0210020B1210020A4210020D2
:10D5B0002DE9F84304460D461746264600BF11489C
:10D5C000006810B90820BDE8F88300BF0CB9082036
:10D5D000F9E7052D01D20720F5E7706908B90820A1
:10D5E000F1E7707C012801D1284600E00020804648
:10D5F00005F06EFD814643462A463146009705F008
:10D6000021FAE0E79C21002070B50446254600BFC2
:10D610000948006808B9082070BD00BF0CB16869EE
:10D6200008B90820F8E70020287405F051FD0646E7
:10D63000294605F035FAEFE79C210020F8B50546AC
:10D640000C4617462088001DB84201D90C20F8BDB1
:10D65000684679DF064600BF0EB13046F7E700BFE7
:10D660000320218868542088401C208019202188AC
:10D6700068542088401C208020884119BDF8000093
:10D6800005F0CAFC2188084420800020DFE7000064
:10D6900010B500224FF4004102480068FFF788FFF0
:10D6A00010BD0000A03202002DE9F04192B080468A
:10D6B0000D461F2011901090B8F1000F17D0404672
:10D6C000FFF711FE044600BF1CB1204612B0BDE8B2
:10D6D000F08100BF11AA08A94046FFF721FD0446CA
:10D6E00000BF0CB12046F1E700BF08AE02E0002603
:10D6F00000201190ADB1284604F0D9FE044600BFC9
:10D700000CB12046E2E700BF10AA69462846FFF7A1
:10D7100007FD044600BF0CB12046D7E700BF6F46A7
:10D7200002E0002700201090BDF84000C3B2BDF811
:10D730004400C1B23A46304672DFC7E72DE9F047F0
:10D7400004460F4615461E46DDF8208000BF14B97A
:10D750000E20BDE8F08700BF00BF0DB90E20F8E72E
:10D7600000BF002046490870464806604648C0F899
:10D770000080242229464548FEF79AFE00F03EF933
:10D780004348444908604448886038214348FEF7CC
:10D79000A8FE207841490870A0788870E078C870A9
:10D7A000607848700846D4E90412C0E90412D4E94C
:10D7B0000212C0E90212D4E90612C0E90612606A38
:10D7C000D8B137483549486236498160606A008877
:10D7D0003249496A0880606A80883049496A88808D
:10D7E000002005E0616A8968095C2E4A1154401CDA
:10D7F0002A49496A89888142F4D8A06A20B32A4913
:10D800002A4881602549886227492448806A8160C6
:10D81000A06A80882149896A8880A06A00881F4997
:10D82000896A0880002005E0A16A8968095C1E4AAF
:10D830001154401C1949896A89888142F4D894F8A6
:10D840002C00164981F82C00206A58B11848134959
:10D850000862206A4088096A4880206A00880F4967
:10D86000096A0880606820B112480C494860606805
:10D87000486039460948FFF717FF8146484668E780
:10D8800038210020302100203421002030270020C2
:10D89000642700205427002084270020F826002039
:10D8A000A4270020B0270020DC270020D02700205C
:10D8B0003C2100204021002070B50446208810281B
:10D8C00004D0112809D01B2863D11BE0A07D0128BA
:10D8D00002D1A088304908805CE000202F49087000
:10D8E000A0882D49098888420BD1012000F08EF8CC
:10D8F000054635B12A48006818B128462849096804
:10D90000884747E0207A002842D12648007801283D
:10D9100006D0022811D003281CD0042836D129E0D3
:10D92000022000F073F8054635B11D48006818B1B3
:10D9300028461B490968884729E0032000F066F85B
:10D94000054635B11648006818B1284614490968DB
:10D9500088471CE0032014490870042000F056F8A2
:10D96000054635B10E48006818B128460C490968CB
:10D9700088470CE000200C4908700C48006820B172
:10D980000846007809490968884700E000BF00BFE1
:10D9900000E000BF00BF70BD4221002039210020FF
:10D9A00034210020382100202C21002030210020AB
:10D9B00070B504460025022C02D0032C15D100E0DE
:10D9C00000BF0B48007878B1002009490870094869
:10D9D000007800F01BF8054635B10748006818B11B
:10D9E000284605490968884700E000BF00BF70BDB0
:10D9F0002421002038210020342100200248002169
:10DA000001608180817170472521002030B587B089
:10DA100005469548057002F085FA28B10120934922
:10DA20000870002007B030BDFFF7E8FF904840784D
:10DA300018B18D48007801280DD08D48807818B134
:10DA400089480078012806D08948807888B18648BE
:10DA5000007802280DD18748006838B10120864936
:10DA60000870082083490968884702E0002082493D
:10DA700008707D480078012809D17D48407818B1A8
:10DA80007E4803F087FE10B9022077490870764877
:10DA90000078022809D17648807818B1774803F0D9
:10DAA00079FE10B90320704908707148007B30B9C5
:10DAB0006D480078032802D104206B4908706C4837
:10DAC000007E40B968480078042804D100206649E7
:10DAD00008706B49087067480068A8B16248007810
:10DAE000032803D06048007804280DD160480078EE
:10DAF00050B16448007838B90120634908700720A4
:10DB00005C490968884702E000205F4908701821D5
:10DB100001A8FEF7E6FC00208DF8040002908DF8C5
:10DB20000C00049050480078012806D0022813D039
:10DB3000032825D0042876D150E05048401E02909A
:10DB400001208DF804000020ADF81600ADF8140097
:10DB500001204B49087071E04848401E02900120A6
:10DB60008DF804004248008980B2ADF816004048A4
:10DB7000808880B2ADF814000220414908705DE051
:10DB80003B48808A80B2ADF816003948008A80B2DE
:10DB9000ADF814003D4805F076FBD8B13448007864
:10DBA000C0B138480078A8B902208DF80C00374879
:10DBB000049004203649C87000213548FFF774FDF1
:10DBC000044600BF0CB120462CE700BF05202C49BD
:10DBD000087002E003202A4908702FE02448808B57
:10DBE00080B2ADF814002248008C80B2ADF8160067
:10DBF000264805F048FBE0B11D480078C8B121482F
:10DC00000078B0B902208DF80C0020480490042060
:10DC10001F49C87000211E48FFF746FD044600BF9B
:10DC200014B12046FEE608E000BF06201449087043
:10DC300002E004201249087000E000BF00BF0A485B
:10DC4000007838B101A873DF044600BF0CB120464C
:10DC5000E8E600BF0748006820B109480078054998
:10DC6000096888470020DDE63821002024210020B3
:10DC700030270020302100203B21002026210020D9
:10DC80002C210020392100203A2100205427002097
:10DC9000F826002070B505461C2229461248FEF7DA
:10DCA00007FC002011490870286850B11048296805
:10DCB0000A680260496841607ADF04463CB1204648
:10DCC00070BD0B487BDF04460CB12046F8E74FF6E9
:10DCD000FF7008490880002007490870074A0021A2
:10DCE0000748FFF7EBFBEBE7FC270020582100205B
:10DCF000442100204E2100204C2100204130020010
:10DD00001433020010B504462088102806D01128CC
:10DD100008D012280ED0502810D107E0204603F07A
:10DD2000AFFB0CE0204603F0C7FB08E0204603F001
:10DD3000E3FB04E0204603F097FB00E000BF00BFD8
:10DD400010BD2DE9FC4105460C46174620880930D8
:10DD5000B84202D90C20BDE8FC81684671DF064656
:10DD600000BF0EB13046F6E700BF08202188685496
:10DD70002088401C20801B20218868542088401C5B
:10DD8000208020882844DDF801100160BDF80510CE
:10DD900081802088801D20809DF8000018B9002017
:10DDA0002188685402E00120218868542088401CA2
:10DDB00020800020CFE7000010B50446204601F087
:10DDC000A1F92046FFF79EFF204603F0FFFA204608
:10DDD000FFF772FD2146024800F004F810BD000074
:10DDE0000E24002070B505460C462088102804D06B
:10DDF000112805D050282ED106E0A08828802BE0DD
:10DE00004FF6FF70288027E0A07C0D2808D113A1D1
:10DE10000020FEF7A3FD04F051FB01201849087013
:10DE2000A07C052802D1012016490870A07C022898
:10DE300003D115A10020FEF791FDA07C012803D19C
:10DE400018A10020FEF78AFDA07C18B91AA10020B5
:10DE5000FEF784FD00E000BF00BF70BD707265700A
:10DE60006172696E6720746F2064756D70206461E3
:10DE7000746120746F205254542E2E2E0A0000001C
:10DE8000072100200621002063656E7472616C20FA
:10DE900064657669636520636F6E6E65637465643F
:10DEA0000A0000006E6F74696669636174696F6E61
:10DEB00073204F4E0A0000006E6F746966696361DB
:10DEC00074696F6E73204F46460A000070B586B0C5
:10DED00038480068059000BF00234822364905A84D
:10DEE00004F0FCF9054600BF2E463EB100BF33A248
:10DEF0004FF4F3713046FFF750FA00BF00BF00BF88
:10DF00006A460121002004F0C9F9044600BF2546F5
:10DF10003DB100BF29A24FF4F6712846FFF73DFA44
:10DF200000BF00BF00BF294E304604F0AFF80446E2
:10DF300000BF25463DB100BF20A240F2EF112846A8
:10DF4000FFF72BFA00BF00BF00BF01208DF80C00C7
:10DF5000684604F095F9044600BF25463DB100BF70
:10DF600016A24FF4FA712846FFF717FA00BF00BF58
:10DF7000174804F079F9044600BF25463DB100BFBB
:10DF80000EA24FF4FC712846FFF707FA00BF00BF4E
:10DF9000104804F0D5F9044600BF25463DB100BF46
:10DFA00006A24FF4FE712846FFF7F7F900BF00BF45
:10DFB00006B070BDA4320200242600202E2E5C2E56
:10DFC0002E5C2E2E5C6D61696E2E6300E81F0020B2
:10DFD000B9DD0100112802007CB50446A1786A462B
:10DFE0000D4803F073FC0546ADB96178C1EBC10182
:10DFF0000A4A02EB81001C231A46694603F0A4FD7D
:10E0000005460748807A074951F82020214668468E
:10E010009047054600BF7CBD5C21002018290020E8
:10E0200064290020283302002DE9F04105460F46FF
:10E030004FF00008002400E0641C042C04D22A489D
:10E0400050F82400A842F7D1042C41D227B3012F65
:10E0500002D0022F3BD133E004EB4400234911F8F6
:10E06000008004EB44000844407868B12048006810
:10E0700000EB800041001F4A1F480068FFF798FA34
:10E0800006460EB91B48057004EB440017490844C6
:10E0900080781A4908551AE017480068FFF7B4FA63
:10E0A0001648005D04EB4401104A11448978884207
:10E0B00005D104EB44001146084490F8028006E0C4
:10E0C00004EB44000949084490F8018000BF00BFF8
:10E0D000B8F1000F06D00A48006818B14046084958
:10E0E00009688847BDE8F081E4320200CC260020B0
:10E0F0000C2100201C210020E03202001D21002004
:10E100001821002070B5044600250548007800F06D
:10E11000010018B1204600F005F80546284670BDFC
:10E12000102100202DE9F041044600260025182C7E
:10E130007DD2DFE804F00C1D1E68B4EEEDECEBEAD6
:10E14000E9E8E7E6E5E4E3E2E1E0DFDEDDDC00BFAD
:10E15000FD4801684FF4F010884300F4F010FB49CB
:10E1600008600020091D086000BFF948047098E2AB
:10E1700000BF00BFF44801684FF4E010884300F48A
:10E18000F010F24908600020091D086000BFEF4848
:10E19000001F006880F4F01000F4003088B100BF68
:10E1A0004FF40030091F08600020091D086000BFFF
:10E1B000022C02D14FF4E16001E04FF47A60054691
:10E1C00010E000BF4FF40030E049091D0860002056
:10E1D000091F086000BF022C01D1C82001E04FF4E4
:10E1E000C8700546DA4804706420B5FBF0F0D949E0
:10E1F000096800FB01F700223946D7480068FFF79D
:10E20000D7F906464DE200BFCF4801684FF4E01051
:10E21000884300F4F010CD4908600020091D086013
:10E2200000BFCA48001F006880F4F01000E037E229
:10E2300000F4003088B100BF4FF40030091F0860BF
:10E240000020091D086000BF032C02D14FF4487064
:10E2500001E04FF47A60054610E000BF4FF4003053
:10E26000BA49091D08600020091F086000BF032C7F
:10E2700001D1C82001E04FF4C8700546B4480470CD
:10E280006420B5FBF0F0B349096800FB01F70022F8
:10E290003946B1480068FFF78BF9064601E200BF36
:10E2A000A94801684FF4E010884300F4F010A74932
:10E2B00008600020091D086000BFA448001F006816
:10E2C00080F4F01000F4003020B300BF4FF40030B1
:10E2D000091F08600020091D086000BF042C02D13E
:10E2E0004FF47A6001E04FF47A60054624E0CBE118
:10E2F000C9E1B3E19DE187E179E13FE13DE13BE146
:10E3000039E137E12AE105E1EDE0D3E0BBE0A1E04E
:10E310006CE022E000BF4FF400308C49091D08601A
:10E320000020091F086000BF042C02D14FF4C87000
:10E3300001E04FF4C8700546854804706420B5FBC1
:10E34000F0F08449096800FB01F700223946824851
:10E350000068FFF72DF90646A3E100BF7A4801687F
:10E360004FF4E010884300F4F01078490860002072
:10E37000091D086000BF7548001F006880F4F01098
:10E3800000F4003080B100BF4FF40030091F086076
:10E390000020091D086000BF052C01D1C82001E044
:10E3A0004FF47A60054610E000BF4FF40030674933
:10E3B000091D08600020091F086000BF052C01D15D
:10E3C000C82001E04FF4C87005466148047064201D
:10E3D000B5FBF0F05F49096800FB01F70022394600
:10E3E0005D480068FFF7E4F806465AE100BF56486A
:10E3F00001684FF4E010884300F4F01053490860BE
:10E400000020091D086000BF5048001F006880F40C
:10E41000F01000F4003040B100BF4FF40030091F8D
:10E4200008600020091D086009E000BF4FF40030BB
:10E430004649091D08600020091F086000BF4448C4
:10E44000047044480022016843480068FFF7B0F8B0
:10E45000064626E100BF3C4801684FF4E0108843BF
:10E4600000F4F010394908600020091D086000BF61
:10E4700000BF4FF4003008600020091F086000BF93
:10E48000334804700DE100BF3049091F08684FF49C
:10E49000802181432D4A116000F48021121D1160FA
:10E4A00000BF2C48002201682B480068FFF780F865
:10E4B0000646F6E000BF2549091F08684FF4802191
:10E4C0008143224A116000F48021121D116000BFB7
:10E4D0002048006800EB800100221F480068FFF719
:10E4E00067F80646DDE000BF1849091F08684FF4C9
:10E4F00080218143154A116000F48021121D1160B2
:10E5000000BF14480022016813480068FFF750F864
:10E510000646C6E000BF0D49091F08684FF4802178
:10E5200081430A4A116000F48021121D116000BF6E
:10E530000848006800EB8001002207480068FFF7E8
:10E5400037F80646ADE00000142100200805005011
:10E55000082100200C210020D832020000BF4FF417
:10E56000F010524908600020091F086000BF5048A1
:10E57000047096E000BF00BF00BF00BF4D480068B8
:10E58000FFF742F80646C4F111050DB306BB4FF480
:10E59000002049490860012D0FD9C8206843642133
:10E5A000B0FBF1F04549096800FB01F7002239464C
:10E5B00040480068FEF7FCFF064600BF3E48006882
:10E5C00000F4F010394908600020091F08600DE0D0
:10E5D00000BF3948006800F4F0103449091F086092
:10E5E0000020091D086000BF3349086059E000BFE2
:10E5F0004FF4F0102D49091F08600020091D086024
:10E6000000BF2B4804704CE000BF4FF4E0102749D6
:10E61000091F08600020091D086000BF00BF4FF4FB
:10E62000003008600020091F086000BF2048047007
:10E6300037E000BF4FF4D0101C49091F08600020CC
:10E64000091D086000BF00BF4FF480200860002053
:10E65000091F086000BF1648047022E000BF4FF495
:10E66000C0101249091F08600020091D086000BF82
:10E6700000BF4FF4C02008600020091F086000BFE1
:10E680000B4804700DE000BF00BF4FF4F0100749C5
:10E6900008600020091F086000BF0548047000E002
:10E6A00000BF00BF3046BDE8F08100000C050050FF
:10E6B00008210020DC320200142100200C2100205F
:10E6C0004FF0FF31054A42F82010082804DBFF23F1
:10E6D000A0F10801503253547047000088290020EF
:10E6E0000146024850F821007047000088290020A8
:10E6F0002DE9F04F03460C464FF0FF390AB10020D8
:10E7000000E0082084460AB1082000E00C20804682
:10E71000614624E0154850F82100401CF0B91D4620
:10E720000846274616464FFA80FBDFF840A00AF15C
:10E73000300A0AF805B0DFF834A04AF820704EB964
:10E740004FFA85FBA0F1080ADFF820E00EF1500E29
:10E750000EF80AB000BF4FFA81F902E0491C4145AA
:10E76000D8D300BF4846BDE8F08F000088290020BC
:10E770000146014840567047B82900202DE9F84F5E
:10E780003A48007800EB80013848001D00EB810416
:10E79000E668A06800EB4000354901EB8000B0F866
:10E7A0000890A06800EB400001EB8000B0F80AA0E0
:10E7B000A06800EB400001EB80004068009003F08F
:10E7C00076F9B6FBF0F100FB116008B9012000E01A
:10E7D00000208046009809FB0A0760883044A18821
:10E7E0004518002023490860B8F1000F04D003F059
:10E7F0005EF96188884209D0B8F1000F03D0BD42AC
:10E8000001D1A08810B1A068032809D103F04FF905
:10E81000B6FBF0F018490860032003F01BFD22E06E
:10E8200003F045F9A1883144B1FBF0F200FB12106E
:10E8300080081249086003F03AF9B5FBF0F100FBDB
:10E84000115008B9012000E000208346BD4206D0E7
:10E85000BBF1000F03D1B9B2A8B203F0F1FF02205F
:10E8600003F0F8FC00BFBDE8F88F0000E0290020AD
:10E87000AC2A002080210020842100207C2100205F
:10E8800010B50848007800EB80010648001D00EB39
:10E8900081042078042802D000F0BAF801E003F0E7
:10E8A00047FF10BDE029002010B50F48007800EBAD
:10E8B00080010D48001D00EB810460880B49086051
:10E8C0002078012804D0032805D0042809D105E0C8
:10E8D00003F02EFF06E0FFF751FF03E004F0A2FB78
:10E8E00000E000BF00BF10BDE02900209021002003
:10E8F00010B50348407808B1FFF7D6FF10BD0000FF
:10E90000E0290020002200EB8003114901F82320B8
:10E9100000EB800301EB83014A80022200EB8003BD
:10E920000B4901EB83018A60002200EB8003084958
:10E9300001EB8301CA6000EB8003054901EB830111
:10E940000A6100EB8003024901EB83018A80704772
:10E95000E42900202DE9F04706460F4690469946E7
:10E96000DDF820A0204840780A2839D01E480078D9
:10E970001D49497844180A2C00D30A3C04EB840151
:10E980001948001D00F8216004EB840100EB8100B0
:10E99000C0F8108004EB84011348001D00EB8100D7
:10E9A000D7E90012C0E9021204EB84010E48001DF1
:10E9B00000EB8100A0F8029004EB84010A48001DDE
:10E9C00000EB8100A0F804A007484078401C0649ED
:10E9D00048700648007808B9FFF766FF002500E098
:10E9E00004252846BDE8F087E02900207821002092
:10E9F00010B50020054908704870002403E0204647
:10EA0000FFF780FF641C0A2CF9D310BDE029002019
:10EA100010B50848007800EB80020648001D00EBA6
:10EA200082010020FEF71EFD00F006F8002003F032
:10EA300011FC10BDE029002010B509490878FFF746
:10EA400061FF07484078401E054948700846007835
:10EA5000401CC0B208700A2801D10020087010BD07
:10EA6000E02900202DE9F04782461F480068002871
:10EA700036D01D480068056803F072FA07461B4847
:10EA800004682146384603F001FFC61C1848007888
:10EA900008B903F077FAAE4201D2284600E03046CA
:10EAA000044424F07F44204603F054FA03F058FA5B
:10EAB00080463946404603F0E9FE00F10309394635
:10EAC000204603F0E3FE814509D903F049FA814667
:10EAD00003F040FA2F20FDF79DFC04F081F801E0DF
:10EAE00003F06EFABDE8F087A0210020A4210020E9
:10EAF000B821002001460888062808DB0888B0F500
:10EB0000486F06DD08884FF6FF72904201D007205B
:10EB100070474888062808DB4888B0F5486F06DD4E
:10EB200048884FF6FF72904201D00720F0E708882E
:10EB30004FF6FF72904208D04888904205D008886E
:10EB40004A88904201DD0720E2E70020E0E72DE956
:10EB5000F04106460D46144698462088801D4045E3
:10EB600002D90C20BDE8F0813046FFF7C3FF07460D
:10EB700000BF0FB13846F5E700BF05202188685473
:10EB80002088401C20801220218868542088401C46
:10EB9000208022885119308804F03EFA21880844E8
:10EBA000208022885119708804F036FA21880844A0
:10EBB00020800020D6E7000010B5044600BF04A264
:10EBC0004FF4A7712046FEF7E8FB00BF10BD000020
:10EBD0002E2E5C2E2E5C2E2E5C6D61696E2E6300D7
:10EBE00030B587B01C216846FDF77BFC0020009003
:10EBF0004FF4203001904FF47020029003208DF8E4
:10EC00000C000020ADF80E008DF810000A480590A9
:10EC10000A4806906846FFF73DF8044600BF2546BF
:10EC20003DB100BF06A240F265112846FEF7B5FBD4
:10EC300000BF00BF07B030BD29140200B9EB0100CE
:10EC40002E2E5C2E2E5C2E2E5C6D61696E2E630066
:10EC500038B51B4801F056FC20BB1A48007848B173
:10EC600019484069E8B1002000901748416968469A
:10EC7000884716E01548007810B91348456801E048
:10EC8000114885680022294611480068FEF790FC6B
:10EC9000044634B10C48806918B10B48816920469C
:10ECA000884709E00848406930B1012000900648D3
:10ECB00041696846884700BF00200249087038BD96
:10ECC0005021002058210020FC2700204C2100204A
:10ECD0001433020070B503460C460820002117E0EB
:10ECE00001EB41050C4E06EB8505AD7A254075B16B
:10ECF0004FF6FF75AB4206D001EB410506EB8505EB
:10ED00002D899D4202D11160002003E00520491C9D
:10ED10000029E5D000BF70BD58290020012100EB7B
:10ED200040020D4B03EB820291724FF6FF7100EB34
:10ED3000400203EB82021181FF2100EB400203EB52
:10ED40008202D17200EB40011A4602EB81010022DF
:10ED50000A608A808A7170475829002010B51A48C5
:10ED6000007800F0080058BB18480068401C17499C
:10ED700008601748006818B1042003F03FFD21E047
:10ED800001F0D2FB18B1022003F038FD1AE011485F
:10ED9000006890B10C48007800F0010048B90A48BA
:10EDA000006840F0010008490860002003F026FDDB
:10EDB00008E0032003F022FD04E003F0F3FC01E08F
:10EDC00003F000FD10BD00009421002084210020EC
:10EDD0007C2100208021002010B50B48007800F035
:10EDE000080070B90848007800F0020028B1064811
:10EDF000006840F0010004490860022003F0FEFCB6
:10EE000001E003F0DFFC10BD942100202DE9FC415E
:10EE100004460D46A1786A462B4802F057FD074686
:10EE2000002F4ED1607800EB4000284901EB8000B4
:10EE3000807A00F04000402801D0022D01D1244EFC
:10EE400004E0012D01D1234E00E0234EA078C0EB59
:10EE5000C000224A02EB800100231C226846B04712
:10EE60000746EFB9022D1BD0607800EB4000174930
:10EE700001EB8000807A20F04000617801EB4101D5
:10EE8000124A02EB810188726078C0EBC000144A1C
:10EE900002EB80011C231A466846B047074600BFB4
:10EEA000022D0ED0207800EB40000E4901EB8000CF
:10EEB000807A0D4951F82020214668469047074640
:10EEC00000BFBDE8FC8100005C2100205829002023
:10EED000711E02004D1D0200C126020054280020B0
:10EEE00018290020642900201833020070B5034659
:10EEF0000A4648F24300002135E0C1EBC1041C4D35
:10EF000005EB8404A47EFF2C2CD11478022C18D09D
:10EF1000C1EBC10405EB8404A47E24F00204C1EB20
:10EF2000C105134E06EB8505AC76C1EBC104354631
:10EF300005EB8404156825619588A5829579A575EA
:10EF40000DE0C1EBC1040A4D05EB8404A47E24F05E
:10EF50000104C1EBC105064E06EB8505AC761970C0
:10EF6000002002E0491C0729C7D300BF70BD000084
:10EF7000542800202DE9F04105460E4617464FF073
:10EF8000050800241AE03DB9C4EBC4000E4901EBAA
:10EF90008000008BB8420CD07DB1C4EBC4010A4A9A
:10EFA00002EB810101F1100007222946FDF7A4FAC6
:10EFB00018B934604FF0000802E0641C072CE2D35B
:10EFC00000BF4046BDE8F081542800207CB50546CE
:10EFD000A9B26A46074802F079FC044644B9742194
:10EFE000684602F0C5FC044614B9284602F0DEFB70
:10EFF00020467CBD5C2100202DE9F04106460F46ED
:10F00000144600BF25463DB100BF05A240F22B21AA
:10F010002846FEF7C2F900BF00BF0020BDE8F0811E
:10F020002E2E5C2E2E5C2E2E5C6D61696E2E630082
:10F030007FB50546039502F03FFD044600BF264616
:10F040003EB100BF29A240F245213046FEF7A5F9A6
:10F0500000BF00BF03A800F0BDFB044600BF26466A
:10F060003EB100BF21A24FF412713046FEF795F970
:10F0700000BF00BF0020CDF805008DF809009DF805
:10F08000050020F00100401C8DF805009DF80500EA
:10F0900020F002008DF805009DF8050020F07000BA
:10F0A00030308DF805009DF8050020F080008DF8C7
:10F0B000050007218DF8061010218DF807100F4864
:10F0C000009001208DF8040069460D4800F034FDE1
:10F0D000044600BF26463EB100BF04A240F25621BE
:10F0E0003046FEF75AF900BF00BF7FBD2E2E5C2EC2
:10F0F0002E5C2E2E5C6D61696E2E6300F9EF0100AF
:10F10000802000202DE9F0478EB00446FF200C90AF
:10F110004FF000094FF0000A00BFFE48007810B918
:10F120000EB0BDE8F08700BF00BFFB48006800B923
:10F13000F6E700BF0BA800F041FB054600BF2E46D6
:10F140003EB100BFF54A40F6F1113046FEF725F911
:10F1500000BF00BF00270025201D09902C20ADF81E
:10F160002800FF208DF82E0000208DF82C000D9037
:10F170002088102813D0A0880DAA0221FFF7AAFD2D
:10F18000054665B90D9800EB4000E54901EB8000AC
:10F19000C07A8DF82E000D98C0B28DF82D00208811
:10F1A00019287DD008DC10280DD0112879D013281B
:10F1B00078D0142877D1C7E01A2875D01E2874D0CB
:10F1C0005228F7D1C0E20DAE324601214FF6FF7052
:10F1D000FFF780FD8046B8F1000F08D102203168AA
:10F1E00001EB4101CE4A02EB8101887201E04FF050
:10F1F000040800BF4546002D62D14FF001091120DF
:10F200008DF820000D98C0B28DF82D00A0880D99C2
:10F2100001EB4101C24A02EB8101088102200D99F4
:10F2200001EB410102EB810188720D9800EB400077
:10F23000114601EB8001A2680A60A2898A80A07B46
:10F240008871E07D00F0010060B1E07DB54901EB1F
:10F2500050000078FF280DD0E07D01EB50000078D1
:10F260000C9007E04FF6FF720CA904F10800FFF7BD
:10F2700081FE054625BBDDE90C0101EB4101A84AF1
:10F2800002EB8101C8720D9800EB4000114601EBC2
:10F290008000807A40F008000D9901EB410105E003
:10F2A0001AE10EE099E05EE2E3E156E202EB810151
:10F2B00088720C98C0B28DF82E000BA8FEF78CFE59
:10F2C00052E20D9800EB4000954901EB8000807AF6
:10F2D00020F002000D9901EB4101914A02EB8101FE
:10F2E00088720D9800EB4000114601EB8000807A97
:10F2F00000F0080008280ED10D9800EB400001EB4B
:10F300008000807A00F0800080280FD100210BA8B7
:10F31000FFF77CFD0AE09DF82E00FF2806D09DF83F
:10F320002E0002F043FAFF208DF82E0010200D99D8
:10F3300001EB41017A4A02EB810188724FF0010929
:10F3400012208DF820000FE20D9800EB4000744968
:10F3500001EB8000C07AFF2824D1228A0CA900206A
:10F36000FFF708FE0546EDB9DDE90C0101EB4101AF
:10F370006B4A02EB8101C8720D9800EB4000114608
:10F3800001EB8000807A40F008000D9901EB41010B
:10F3900002EB810188720C98C0B28DF82E000BA888
:10F3A000FEF71AFE0D9800EB40005D4901EB80006E
:10F3B000C07AFF2805D00D98C0EBC0005A4901EB78
:10F3C000800A0D99C1EBC101584B03EB8102A08863
:10F3D0000023514686DF0546C6E113208DF8200044
:10F3E0000D9800EB40004E4901EB8000807A40F020
:10F3F00004000D9901EB4101494A02EB8101887239
:10F400004FF001090D9800EB4000114601EB800020
:10F41000C07AFF2842D10D9800EB400002EB80013A
:10F420000CA8FFF763FD054665B90C98C0B28DF8CE
:10F430002E00DDE90C0101EB4101394A02EB8101AB
:10F44000C87202E02F464FF00109002004900D9889
:10F4500000EB4000324901EB8000C07AC0EBC000F5
:10F46000324901EB800105910021069107910D9829
:10F47000C0EBC0002C4901EB8000009000200190FF
:10F4800002900390A0886B46234A121D00217FDF63
:10F49000054615B12F464FF000091CE00D9800EB12
:10F4A00040001F4901EB8000807A40F040000D9938
:10F4B00001EB41011A4A02EB8101887216208DF896
:10F4C0002000A08800231A4685217FDF054615B15C
:10F4D0002F464FF0000947E10F48407A20F0010025
:10F4E0000D4948720D9800EB40000D4901EB80007A
:10F4F000807A20F004000D9901EB4101084A02EBEB
:10F500008101887214208DF820004FF00109207AC3
:10F5100020B30DE06821002064290020943302000C
:10F520005829002069210020182900205428002093
:10F530000D9800EB4000114601EB8000807A00F04E
:10F540004000402809D00D9901EB410102EB8101F7
:10F55000C87AFFF73BFD0646277A89E0607AC0F358
:10F560008000E0B39DF82E00FF2838D00D9800EB06
:10F5700040008C4901EB8000807A40F008000D9932
:10F5800001EB4101874A02EB81018872607BC0F385
:10F59000400088B19DF82E00C0EBC000824901EB0D
:10F5A0008000807E20F001009DF82E10C1EBC1018B
:10F5B0007D4A02EB810188760D9800EB4000794985
:10F5C00001EB8000C07AFF2852D00D9800EB40007C
:10F5D00011F82000022827D09DF82E0000E047E017
:10F5E000C0EBC000704901EB80000D9901EB4101B7
:10F5F0006C4A02EB81010A6802618A8882828979F9
:10F6000081759DF82E00C0EBC000674901EB8000BA
:10F61000807E20F002009DF82E10C1EBC101624AED
:10F6200002EB810188761FE00D98C0EBC0005F49B6
:10F6300001EB8000408A9DF82E10C1EBC1015A4AAF
:10F6400002EB810108839DF82E00C0EBC00011463B
:10F6500001EB8000807E20F001009DF82E10C1EBB0
:10F66000C10102EB8101887601210BA8FFF7CEFBD7
:10F670007AE0207A0121B1EB101F43D1207A00F00B
:10F680000F0001283ED10D9800EB4000454901EBE9
:10F690008000807A00F00800082833D10D9901EB32
:10F6A000C101434A02EB810101F108001A21FCF774
:10F6B00018FF16208DF820000D9800EB4000394906
:10F6C00001EB8000807A40F020000D9901EB4101B0
:10F6D000344A02EB810188720D9800EB400011461C
:10F6E00001EB8000807A40F040000D9901EB410170
:10F6F00002EB810188722F48407A40F002002D49C8
:10F7000048721DE00D9800EB4000264901EB800097
:10F71000807A40F080000D9901EB4101214A02EB13
:10F720008101887215208DF820002248807A224AB3
:10F7300052F820100BA8884705460DB148F2410742
:10F7400000274FF001090FE01A48807A1A4A52F850
:10F7500020100BA88847074606E013208DF82000EC
:10F760004FF0010900E000BF00BFB9F1000F17D052
:10F770003A4608A90BA8FDF765FE9DF8200012285F
:10F780000ED100BF0D9800EB4000064901EB800050
:10F79000807A012802D00D98FFF7C0FA00BF00BFA1
:10F7A00000BFBDE45829002054280020182900205B
:10F7B000342900206429002038330200014611B9A1
:10F7C00048F20E007047FF20087048708870C870BB
:10F7D0000020F7E77FB506461EB948F20E0004B0D8
:10F7E00070BD002412E02046002100EB4002344BA3
:10F7F00043F8221000EB400203EB8202517200EB4F
:10F80000400203EB8202917200BF641C002CEAD01C
:10F81000002403E02046FFF781FA641C002CF9D095
:10F8200024212848FCF75DFE002406E0204601F074
:10F83000BDFFFF2024490855641C072CF6D3742013
:10F84000ADF80C000720ADF80E00204802902049CA
:10F8500002A802F0F3F9054625BB01201D490870F6
:10F86000307800BB00241BE0A1B26A46184802F0C1
:10F870002DF805467DB9C4EBC401174A02EB81009F
:10F8800000231C22694602F05FF905463DB10020C5
:10F890001049087006E000200E49087002E0641C60
:10F8A000072CE1D309E0BDF80C00BDF80E20504351
:10F8B00081B2074802F05CF8054628468FE7000051
:10F8C000642900203429002069210020DDF801008E
:10F8D0005C21002068210020542800202DE9FF4FE2
:10F8E00091B00F4692461D46DDF8789000BF8748DC
:10F8F000006810B915B0BDE8F08F00BFB9F1740F02
:10F9000000D9F7E74FF0010B0DA8FFF757FF0646A8
:10F9100000BFB046B8F1000F07D000BF7C4A40F2EC
:10F92000A1514046FDF739FD00BF00BF00208DF812
:10F9300034008DF838000C95CDF82C90804614E0FA
:10F940001FFA88F108AA734801F0C0FF064656B9AD
:10F95000082208A91198FCF7CFFD20B908F0FF0094
:10F960008DF8360004E008F10108B8F1070FE7D37D
:10F9700000BF9DF83600FF2878D0032F0AD1B9F1D7
:10F98000740F03D120208DF838009BE040208DF8C3
:10F99000380097E06048281A1C21B0FBF1F4072CCE
:10F9A0001BD20AA80F90BAF1000F0ED19DF83600B5
:10F9B00001218140594A1268114009B1012100E03A
:10F9C000002111B94FF0000B7CE09DF8360003F0E8
:10F9D0002DFB20208DF8380074E05148281A1C2196
:10F9E000B0FBF1F4F4B90AA80F9020208DF838008C
:10F9F000E0B28DF83500002004904A490591C4EB2F
:10FA0000C400474901EB800000909DF83600C0EB30
:10FA1000C000414901EB80000190CDF830D020209A
:10FA20000B904FE04048281A2421B0FBF1F4F4B9C0
:10FA300030208DF83800E0B28DF8350001208DF8C7
:10FA4000370004EB4400394901EB8000807A00F074
:10FA50000200022836D09DF8351001EBC101324A70
:10FA600002EB81002421FCF73CFD2BE04CE04FF041
:10FA7000000B40208DF838002D48854203D1032724
:10FA80004FF0010B1EE09DF836002A4951F8200086
:10FA9000A84217D14FF0010B0AA80F9000200EE0EA
:10FAA0009DF8361000EB4002204B03EB8202D27A25
:10FAB000914203D1C1B28DF8351002E0401C0028FC
:10FAC000EED000BFBBF1010F1ED1032F06D19DF870
:10FAD000380040F003008DF838000EE0022F06D108
:10FAE0009DF8380040F001008DF8380005E09DF8E1
:10FAF000380040F002008DF838000AA80F905246F6
:10FB00000EA90DA8FDF79EFC00BFF3E664290020B6
:10FB1000943302005C21002054280020642100203E
:10FB2000182900207029002034290020582900209D
:10FB3000483302003828002010B5024600BF28488C
:10FB4000007810B948F2080010BD00BF12B948F2A1
:10FB50000E00F9E711B948F20E00F5E7086810B990
:10FB600048F20E00F0E71F48006898BB1D4C08687B
:10FB700020602046D1F8054044604C7A0472087930
:10FB8000184CA0722046007A20F001041548047237
:10FB9000007A20F00200801C124C20722046007A6D
:10FBA00020F004040F480472C07920F00100401CCA
:10FBB0000C4CE0712046C07920F00200801CE071FE
:10FBC0002046C07920F004040648C471002010705B
:10FBD000002302E0FFE748F204031846B4E7000000
:10FBE0006821002064290020014614480078144A46
:10FBF000127890421DD011480078401C0F4A1070B6
:10FC000010460078022801D1002010700D480B4AE0
:10FC1000127850F8220008600B4A086812681044F5
:10FC2000094A10601046006820F07F4010600120F3
:10FC300070470020086000BFFAE70000B0210020F4
:10FC4000B1210020A8210020A421002010B50C48DB
:10FC5000007800F0080078B90A480068401C09499B
:10FC6000086000F061FC10B9FEF70AFE06E00648E5
:10FC7000007802F0EFFA01E000F072FF10BD000022
:10FC8000942100208421002078210020134800784E
:10FC9000062820D11148001D007800F00F00D0B9CF
:10FCA0000E480830007800F0F000302801D1012023
:10FCB00070470A480830007800F0F000402801D171
:10FCC0000120F5E705480830007800F0F0005028E2
:10FCD00001D10120ECE70020EAE70000E00F00F08E
:10FCE0000A48007806280ED10848001D007800F068
:10FCF0000F0040B905480830007800F0F0003028C7
:10FD000001D1012070470020FCE70000E00F00F067
:10FD100013480078062820D11148001D007800F013
:10FD20000F00D0B90E480830007800F0F0003028FD
:10FD300001D1012070470A480830007800F0F00037
:10FD4000402801D10120F5E705480830007800F08F
:10FD5000F000502801D10120ECE70020EAE7000084
:10FD6000E00F00F00A48007806280ED10848001D70
:10FD7000007800F00F0040B905480830007800F026
:10FD8000F000302801D1012070470020FCE700007E
:10FD9000E00F00F013480078062820D11148001D1C
:10FDA000007800F00F00D0B90E480830007800F05D
:10FDB000F000302801D1012070470A48083000784F
:10FDC00000F0F000402801D10120F5E70548083097
:10FDD000007800F0F000502801D10120ECE700206D
:10FDE000EAE70000E00F00F00A48007806280ED18C
:10FDF0000848001D007800F00F0040B905480830A1
:10FE0000007800F0F000302801D101207047002078
:10FE1000FCE70000E00F00F00A48007806280ED149
:10FE20000848001D007800F00F0040B90548083070
:10FE3000007800F0F000302801D101207047002048
:10FE4000FCE70000E00F00F00A48007806280ED119
:10FE50000848001D007800F00F0040B90548083040
:10FE6000007800F0F000502801D1012070470020F8
:10FE7000FCE70000E00F00F0F0B5034600241FE0AF
:10FE8000124E306806689E4203D90668F61A06606C
:10FE90001AE006689B1B06683444002606600B4E79
:10FEA00035680A4FC6693E60C66846B10E1926F02D
:10FEB0007F464660C66886601668C661156000BFEA
:10FEC000024800680028DBD100BFF0BDA02100205F
:10FED00010B50446A07EFF2802D0A07E01F0E6F90E
:10FEE000002060762071201D2168884710BD30B544
:10FEF00004461088C01C984201D90C2030BD022055
:10FF0000158848551088401C1080012015884855D8
:10FF10001088401C108015884C551088401C10809B
:10FF20000020EBE738B500200090684601F0B8FCEF
:10FF30000446082C02D00CB1012038BD082C06D193
:10FF4000684600F071F804460CB10020F5E700980F
:10FF500008B10120F1E70020EFE7000010B50446EA
:10FF600014B1112C08D100E00AE00648006840F006
:10FF700008000449086003E02046FDF78BFA00BF43
:10FF800000BF10BD9421002010B50D480068401C32
:10FF90000B490860B0F57A7F0DD00A480078022836
:10FFA00004D00848007802F055F907E006480078C8
:10FFB00002F024FC02E00D20FDF76CFA10BD0000F9
:10FFC00088210020782100207921002010B50A48DE
:10FFD0000078012804D0022808D0032809D102E0C3
:10FFE00002F0ACFB06E0FFF731FE03E002F0FAFBA3
:10FFF00000E000BF00BF10BD7821002070B50446AE
:020000040002F8
:10000000204628DF0546FFF7A9FF70BD2DE9F04126
:1000100004460D46164632462946204629DF074645
:10002000FFF79CFFBDE8F081014609B90320704746
:100030000248406D08600020F9E70000242B0020F2
:100040003EB500BF9DF8000020F00F00401C00905E
:100050009DF8000020F0F0001030009000BF112249
:1000600017A168467CDF044600BF25463DB100BFAE
:1000700018A24FF48E712846FDF78FF900BF00BF1C
:100080000020019002900C20ADF804002020ADF873
:1000900006000020ADF808004FF4C870ADF80A0063
:1000A00001A87ADF044600BF25463DB100BF09A282
:1000B0004FF493712846FDF770F900BF00BF3EBDB5
:1000C0004A6F686E436F756761724D656C6C656EE3
:1000D000630000002E2E5C2E2E5C2E2E5C6D61695E
:1000E0006E2E6300014600207047024600207047D4
:1000F00002460020704700002DE9F0410446002729
:10010000B8460026607800EBC000374901EB80005C
:10011000406848B3607800EB4000344901EB800050
:10012000807A00F0800080281ED1607800EB4000CB
:1001300001EB8000807A00F04000402814D0607805
:1001400000EBC000284901EB800000F1080760784F
:1001500000EBC00001EB800080881FFA80F8607817
:1001600000EBC00051F82060617801EB41011F4AAB
:1001700002EB81010889334642463946A9DF05462C
:100180000B2D0CD10126617801EB4101174A02EBDE
:1001900081010889334642463946A9DF05460DB13B
:1001A00048F24105012E1BD1617801EB41010F4A54
:1001B00002EB810108894FF6FF720C21A7DF05468B
:1001C00075B143F20200854208D0082D06D0801C8C
:1001D000854203D0112D01D0002501E048F24105F0
:1001E0002846BDE8F081000034290020582900206D
:1001F00070B505460C46617801EBC1010E4A02EB71
:10020000810038232422294601F09EFC064686B947
:10021000607800EBC000084901EB80004068401C9A
:1002200038B90020617801EBC101034A02EB81017A
:100230004860304670BD0000342900202DE9F041AF
:1002400088B007460C4603261A200790617801EB18
:100250004101324A02EB81010889334607AA694607
:10026000AADF8046B8F1000F54D1617801EBC101DB
:100270002B4A02EB810101F10800BDF81C20694600
:10028000FCF73AF9A0B9607800EB4000234901EB94
:100290008000807A00F0020002283BD0617801EBF8
:1002A000C1011F4A02EB81002421FCF71AF931E059
:1002B000607800EBC0001A4901EB8000406808B18B
:1002C000184D00E0184D607800EBC000144941F86B
:1002D0002060BDF81C00617801EBC101104A02EBFF
:1002E00081014860617801EBC10102EB810101F1FC
:1002F0000800BDF81C206946FCF7DAF8607800EBCE
:10030000C000074A02EB8001382324223846A84760
:10031000804600BF002008B0BDE8F08158290020C9
:1003200034290020711E02004D1D020070B50546E3
:100330002846FFF7E1FE044614B900BF002004463A
:10034000204670BD70B505460E4631462846FFF77B
:100350004FFF044614B900BF00200446204670BD7C
:1003600070B505460E4631462846FFF767FF04463E
:1003700014B900BF00200446204670BD10B51648D1
:10038000007800F0080018BB00F0FAF860B1002017
:10039000124908601048006840F001000E490860EA
:1003A000002002F02BFA15E000F0BEF830B100207A
:1003B0000A490860022002F021FA0BE008480068B0
:1003C00018B1032002F01AFA04E002F0EBF901E0A0
:1003D00002F0F8F910BD0000942100207C210020DB
:1003E00080210020F7B50C4615466946204600F0EE
:1003F0009FFD064626B1224606A10020FCF7BBFA67
:100400001DB1204600F0FAFD02E0204600F08AFD12
:10041000FEBD00006572726F7220696E6974696159
:100420006C697A696E672070696E2025640A000025
:10043000F8B52548007800B9F8BD2448006808B927
:10044000012000E0002005462148006808B901208D
:1004500000E00020064600BF9DB9684652DF044612
:10046000052C01D101250BE034B100BF194A9321BD
:100470002046FCF792FF03E014490098096888477A
:1004800000BFCEB914480088009069461348006840
:1004900061DF0446052C01D101260CE034B100BF18
:1004A0000C4AB2212046FCF778FF04E00B480068B4
:1004B00007490968884700BF0DB106B100E0CBE7E6
:1004C00000BF00BFB8E70000C0210020D0210020FD
:1004D000CC210020E0330200C8210020C4210020EC
:1004E00070B505460C464FF48471284600F00CFFA9
:1004F0002146284602F0C7FB10B92046FFF7E8FC6A
:1005000070BD000001464888064A1288904206DB0A
:100510004888044A5288904201DC0120704700203C
:10052000FCE70000442100202DE9F041114800784B
:1005300000EB80010F48001D00EB8105EF6801F022
:10054000B6FA69883944AA881144491EB1FBF0F60D
:1005500009480068B04206D307480068B04204D199
:100560000648006808B9012400E000242046BDE8E0
:10057000F0810000E029002084210020802100205B
:100580002DE9F0410F48007800EB80010D48001D77
:1005900000EB8105EE6801F08AFA69883144AA8887
:1005A0001144491EB1FBF0F70748006828B107481D
:1005B0000068B84201D1012400E000242046BDE8D3
:1005C000F0810000E029002080210020842100200B
:1005D000014601F0030008B9012070470020FCE744
:1005E00030B504461088C01C984201D90C2030BD9B
:1005F0000220158848551088401C10801C20158842
:1006000048551088401C1080012C06D0022C08D0C0
:10061000032C0AD0042C10D10BE00020158848557B
:100620000DE001201588485509E00220158848553D
:1006300005E003201588485501E00720D7E700BFF3
:100640001088401C10800020D1E700002DE9F04107
:100650002148D0F80080214806782FE02048006823
:1006600000EBC604257825E005EB4501606800EB4A
:10067000C107681CC5B2A078A84200D1002538780F
:10068000022802D0032812D103E0786802F0A4F90E
:100690000EE007E010490868002101740E4AC169A4
:1006A000116000BF0C4800680028F3D100E000BFD3
:1006B00000BF00BF6078A842D6D100BF301EA6F1AF
:1006C0000101CEB2CAD104480068404502D00120E1
:1006D000BDE8F0810020FBE7A02100209821002048
:1006E0009C2100202DE9F04706463B48D0F80090B9
:1006F0003A48077861E03A48006800EBC70555E0E2
:1007000016B13446E66923E02A7802EB42026968B2
:1007100001EBC2002978491C29702978AA789142F6
:1007200001D10021297044680178012901D1217C7F
:1007300001B13BE081686160C168A1600169E1606D
:100740004169A1612749097809B10021616000BFB1
:10075000254960680968401A20F07F402349884293
:1007600008D221496068096802F090F8A16808443D
:10077000206010E01C486168006802F087F880463D
:10078000A068404504D9A068A0EB0800206001E003
:100790000020206000BF00206060A0600120207465
:1007A0000020E061204602F0E3F800BF002EA7D150
:1007B000287869788842A3D100BF381EA7F10101CB
:1007C000CFB298D104480068484502D00120BDE866
:1007D000F0870020FBE70000A021002098210020E6
:1007E0009C210020B9210020A4210020FFFF7F00D0
:1007F00094B000F08DFB10B900F060FB0446082CAB
:1008000003D1ACA10020FCF7A9F8AF480068139011
:10081000012206211398FFF7E5FD0122112113980B
:10082000FFF7E0FD012204211398FFF7DBFD012211
:10083000A64801681398FFF7D5FD0122A448016876
:100840001398FFF7CFFD0022A24801681398FFF725
:10085000C9FD0122A04801681398FFF7C3FD9A481B
:10086000001D0068129000BF9C4A9D499D4800F001
:10087000CBFB8346BBF1000F07D000BF9AA24FF419
:1008800046715846FCF789FD00BF00BF11AA002140
:10089000112001F061FD9DF8452097A10020FCF793
:1008A0006AF810AA0021062001F056FD9DF84120AB
:1008B00094A10020FCF75FF823250322294611208C
:1008C00001F076FD242601223146112001F070FD51
:1008D000252703223946112001F06AFD4FF0260832
:1008E00001224146112001F063FD4FF02709032248
:1008F0004946112001F05CFD4FF0280A01225146C3
:10090000112001F055FD29200F90012211200F998F
:1009100001F04EFD3B200E90202211200E9901F097
:1009200047FD3C200D90202211200D9901F040FD43
:100930003D200C90602211200C9901F039FD3E20E1
:100940000B900B2211200B9901F032FD3F200A90F1
:10095000172211200A9901F02BFD6E4A12A96E4848
:10096000006800F03FFA04461CB16CA10020FBF7C0
:10097000F5FF01216848006800F0D8F96FA0006811
:10098000099009A80890042000F0CCFA0020034642
:10099000012200905348089900F0E0FB00E020BFDE
:1009A000674800780028FAD0042000F027FB0020D8
:1009B0006349087063A00068079007A806900420A8
:1009C00000F0B0FA00200346022200904548069944
:1009D00000F0C4FB00E020BF594800780028FAD09E
:1009E000042000F00BFB002055490870042000F0A3
:1009F00099FA00200346012200903A48089900F035
:100A0000ADFB00E020BF4E4800780028FAD004205B
:100A100000F0F4FA00204A4908704BA000680590E5
:100A200005A8049003A80290042000F07BFA02209D
:100A3000009001222B48029B049900F08FFB00E0FC
:100A400020BF3F4800780028FAD0042000F0D6FAF2
:100A500000203B4908709DF80D00422803D13BA1BE
:100A60000020FBF77BFF02F0C1F8FDF72FFA019899
:100A7000FEF7DEFAFFF7E4FA01F0E4FBFCF73CFCDA
:100A8000FEF7AEF8FCF704FE0320FCF7BFFF0446B8
:100A900000BFA346BBF1000F07D000BF12A24FF466
:100AA00067715846FCF779FC00BF00BF00BF00F03B
:100AB000DFFEFCE74E52465F494E56414C49445FCB
:100AC00053544154450A0000A8320200C4200020BB
:100AD000C8200020D0200020CC20002005240200C7
:100AE000E0200020983202002E2E5C2E2E5C2E2E4E
:100AF0005C6D61696E2E63006465762069642025F3
:100B0000640A0000616E74206465762069642025A3
:100B1000640A0000B5D00100DC200020696E746515
:100B200072727570742070696E206E6F7420696EB9
:100B3000697469616C697A65640A000006000000E6
:100B4000A120002001420000050000004652414D56
:100B500020696E697469616C697A65640A000000D5
:100B600010B50548006820F00800034908600348F4
:100B7000007801F06FFB10BD942100207821002047
:100B80002DE9F04105460E4614469846A888871C74
:100B90002088801C3844404502D90C20BDE8F081F3
:100BA000FE2F01D90C20F9E7781C21887054208889
:100BB000401C2080FF20218870542088401C208009
:100BC00022889119288802F027FA21880844208079
:100BD000A88800280DDDA86808B90720DEE7AA88E4
:100BE00023889819A968FBF763FC2088A988084422
:100BF00020800020D2E72DE9F84F05460F46144625
:100C000098462878012804D1687810B90720BDE8F3
:100C1000F88F2088801C404508D82878012807D103
:100C20002088801C69780844404501D90C20EEE7F3
:100C30002088A8EB0000801E86B200962188891CBF
:100C4000C81969467DDF814600BFB9F1000F01D0A8
:100C50004846DCE700BF2878022806D1BDF800002E
:100C6000B04202DC4FF0090A0BE04FF0080A287886
:100C7000012805D16878B04202DC6878009000E075
:100C80000096BDF80000FE2801D90C20BFE7BDF892
:100C90000000401C218878542088401C2080208837
:100CA00007F800A02088401C20802088BDF8001094
:100CB000084420800020AAE7014600207047024631
:100CC00000207047024600207047000070B50B46B8
:100CD00001461A46002907DA5407260E104C01F087
:100CE0000F052D1F665503E05407250E0D4C655466
:100CF00000BF00BF00F01F02012191400A4A4409D1
:100D000042F8241000BF00BF00F01F0201219140F3
:100D10004209920002F1E022C2F8001100BF70BD4A
:100D200018ED00E000E400E080E200E02DE9F0478B
:100D300005460E46284600F079FDF8B12846FDF735
:100D400017FD083824490F5CBC11032C0BD100BFE0
:100D5000224800680121A940084008B1032000E0B2
:100D60000220804605E0012C01D1022000E0032092
:100D700080464146284600F06FFA2AE0284600F0F7
:100D800061FD30B32846FDF7F3FC0446A00000F5F2
:100D9000807087B22046124951F8201041F00102BC
:100DA0000F4941F8202000BF384600F08DFA7EB18F
:100DB0002846FDF7DDFC8146FDF792FC8046B8F140
:100DC000000F04D0012101FA04F000F097FA00BFEF
:100DD00000BFBDE8F0870000D829002010050050B2
:100DE000106500402DE9FC4704460E4617464FF0BB
:100DF0000008204600F00CFD10B14FF0080851E04B
:100E0000F27839462046FDF773FC0546681C002839
:100E100045D0B07860B100BFA10001F1A041D1F888
:100E2000001721F00200214941F8240000BF0CE026
:100E300096F80190002000904B4602460146019032
:100E4000204600F0D9F900BF00BFF078D0B130786B
:100E5000174951F82510174A1140154A42F8251034
:100E6000114651F825104FF4F85202EA04224FF4CB
:100E7000403303EA00431A4311430D4A42F8251058
:100E800000BF0EE0A5F108000B49085C317840EA8C
:100E9000811042B2A5F1080007490A5401E04FF061
:100EA000040800BF4046BDE8FC8700000007005072
:100EB00010650040FFE0FCFFD829002010B5134862
:100EC00090F8540008B1082010BD002404E020462A
:100ED00000F0C8FC601CC4B2202CF8DB002404E045
:100EE0002046FDF7EDFB601CC4B20C2CF8DB06219C
:100EF0000846FFF7EBFE4FF0004000F0FFF901203D
:100F0000024981F854000020DEE700008829002013
:100F1000034890F8540008B1012070470020FCE716
:100F20008829002010B50446204600F0A7F910BD1E
:100F30002DE9FC4104460E46002720462C4909565F
:100F4000491C09B1012100E0002109B108274BE04B
:100F5000B07860B3012200212046FDF7C9FB0546A9
:100F6000681C10B330787178224A52F82520224B41
:100F70001A40204B43F825201A4652F825304FF4EA
:100F8000F85202EA04224FF4403C0CEA004C42EAD8
:100F90000C024FF4801C0CEA015C42EA0C02134381
:100FA000144A42F8253000BF00E0042705E000BFE6
:100FB000FE210F48015500BF00BFAFB9707801286E
:100FC00003D1204600F06AF902E0204600F056F90D
:100FD00000BF0020009003460122114601902046E8
:100FE00000F00AF900BF00BF3846BDE8FC810000F0
:100FF000B829002010650040FFE0ECFF10B5044662
:10100000204600F04BF910BD2DE9FC4706460C4682
:10101000924670794E4901EB401898F8180010B1CB
:101020000820BDE8FC871CB970794A4901EB00141F
:10103000C8F800A0207B012803DC207800F026F906
:1010400002E0207800F032F901214348227840F88C
:1010500022106078FF2808D094F80190484600F0EC
:1010600015F9484600F0ECF801E04FF0FF39A078A0
:10107000FF280CD0A7780025002000902B460246C0
:1010800001460190384600F0C9F800BF01E04FF07A
:10109000FF37E078FF2805D0E07800F007F9E07826
:1010A00000F0CEF8E0787179294A02EB4111887698
:1010B000356828462178C0F80815C0F80C954FF41B
:1010C000A262175000BFA068C5F8240500BF217BAD
:1010D000627B0AB1012300E00023184631B10129E7
:1010E00006D0022907D0032908D000BF00BF08E0BE
:1010F00040F0020005E040F0040002E040F006008D
:1011000000BF00BFC5F8540500BF60797179104A6F
:1011100002EB4111C876D8F8000018B10421284626
:1011200000F0F8F800BF0120C5F8000500BFD8F8AE
:10113000000020B1217996F90400FFF7C7FD0020D7
:1011400088F81900012088F81800002069E70000DD
:10115000C42A002074330200000700502DE9FF412B
:1011600007460C4615461E46DDF828800094029678
:101170008DF804508DF80C8000226946384600F046
:1011800003F804B0BDE8F0812DE9F04105460E46B4
:1011900017466879174901EB4014607E10B11120A1
:1011A000BDE8F081206820B107F0140008B90120E3
:1011B000607696E80E10C4E9043CC4E90212607F30
:1011C00020F001006077607F20F002006077A07E51
:1011D000FF2802D0A07E00F059F81FB100206076F1
:1011E0000620DDE732462146286801F011F900208B
:1011F000D6E70000C42A0020F0B5DDE9054541EA44
:10120000420646EA830646EA042646EA0547024EB7
:1012100046F82070F0BD000000070050F0B5DDE991
:10122000054541EA420646EA830646EA042646EABE
:101230000547024E46F82070F0BD00000007005040
:101240001CB504460020009003460122114601907F
:101250002046FFF7E3FF1CBD074A52F8202022F486
:101260004033054A42F8203052F8202042EA014338
:10127000014A42F8203070470007005001218140A8
:10128000014A1160704700000C05005001218140A7
:10129000014A1160704700000C0500500121814097
:1012A000014A11607047000008050050012181408B
:1012B000014A1160704700000805005001460148CE
:1012C000084470470060004038B504462046FFF7E8
:1012D000F5FF002101602046FFF7F0FF0068009055
:1012E00000BF38BD10B504462046FFF7E7FF006891
:1012F000012800D110BD0020FCE700000149086072
:101300007047000004630040002242507047C0F85C
:1013100008137047C0F804137047C0F81C157047D5
:101320000146D1F88004C1F8800470470246505845
:1013300008B1012070470020FCE7002242507047AE
:10134000C0F8081370470246D2F80403084008B1F9
:10135000012070470020FCE70122425070470146FF
:10136000D1F88004C1F8800470470246505808B193
:10137000012070470020FCE70022425070470146E0
:1013800040F23C504058704770B5054695B1032D6A
:1013900011D10220FCF7B6FE044600BF26463EB13E
:1013A00000BF06A24FF4CA713046FBF7F6FF00BF3C
:1013B00000BF01E000E000BF00BF70BD2E2E5C2E1C
:1013C0002E5C2E2E5C6D61696E2E630070B5054635
:1013D0002888102802D0112819D113E00720FCF723
:1013E00091FE044600BF26463EB100BF09A240F26E
:1013F000AB113046FBF7D1FF00BF00BFA8880949F9
:10140000088005E04FF6FF700649088000E000BF45
:1014100000BF70BD2E2E5C2E2E5C2E2E5C6D616981
:101420006E2E63008220002070B50546287880B9B2
:101430003B210848008876DF044600BF26463EB1BF
:1014400000BF05A240F243113046FBF7A6FF00BFE4
:1014500000BF70BD822000202E2E5C2E2E5C2E2E12
:101460005C6D61696E2E630010B504460349A26885
:101470000A60E0684860FDF7EBFB10BD50210020DA
:1014800010B50446A088084908800849A2690A6086
:10149000E06948600020064908700648C08908B91C
:1014A000FDF7D6FB10BD00004E210020502100208A
:1014B0004C210020FC27002070B505464FF6FF7038
:1014C0000949088000200949087009480068FCF7AC
:1014D0009BF8044634B10748806918B10548816912
:1014E0002046884770BD00004E2100204C2100207E
:1014F00014330200FC27002070B50546AC1D20887F
:101500001149C98988421DD1608902281AD100BFBA
:1015100000BF217B627B41EA0221084600F0010105
:1015200011B1FDF795FB0DE008480068FCF76CF879
:10153000064636B10448806918B1034881693046CF
:10154000884700BF70BD0000FC2700201433020054
:1015500070B59CB00546574B0FCB17AC0FC44BF67C
:10156000EF60ADF86C00A11C17A863DF044600BF54
:10157000264636B100BF50A249213046FBF70DFF89
:1015800000BF00BF1C2110A8FAF7ABFF9DF8400078
:1015900020F00200801C8DF840009DF8400020F0F3
:1015A000080008308DF8400000200F9000BF9DF823
:1015B0003C0020F00F00401C8DF83C009DF83C00E2
:1015C00020F0F00010308DF83C0000BF00BF9DF807
:1015D0003D0020F00F00401C8DF83D009DF83D00BF
:1015E00020F0F00010308DF83D0000BF9DF83E0067
:1015F00020F00600801C8DF83E000FA815909DF885
:10160000400020F0100010308DF8400000200E90B7
:101610009DF83A0020F00600801C8DF83A0000BFCB
:101620009DF8380020F00F00401C8DF838009DF820
:10163000380020F0F00010308DF8380000BF00BFF7
:101640009DF8390020F00F00401C8DF839009DF8FE
:10165000390020F0F00010308DF8390000BF14215F
:1016600009A8FAF73EFF1BA809900EA80A901420BB
:10167000ADF83000ADF82C001C2102A8FAF731FFBC
:101680000C4810300068019001A80D9068882B1D4F
:1016900009AA10A9A2DF044600BF264636B100BF42
:1016A00005A271213046FBF778FE00BF00BF002085
:1016B0001CB070BDB43202002E2E5C2E2E5C2E2E7D
:1016C0005C6F75725F736572766963652E63000087
:1016D00070B586B00546174B0FCB01AC0FC44FF267
:1016E0000D00ADF81400A11C01A863DF044600BF83
:1016F000264636B100BF10A285213046FBF74DFECD
:1017000000BF00BF4FF6FF702880AA1C05A901206A
:10171000A0DF044600BF264636B100BF06A28E21D8
:101720003046FBF73AFE00BF00BF2846FFF710FF28
:1017300006B070BDC83202002E2E5C2E2E5C2E2EFE
:101740005C6F75725F736572766963652E63000006
:1017500030B585B004460D4620884FF6FF718842AB
:1017600016D0142004900020009001900290039065
:10177000A088ADF8000001208DF802000020ADF82F
:10178000040004A80290039520886946A6DF00BFE4
:1017900005B030BD0246002104E0505C08B10120D4
:1017A0007047491C0629F8D30020F9E710B5044614
:1017B000C4EBC400144901EB80000021401C01610E
:1017C0008182C4EBC401104A02EB81001021FAF7B8
:1017D00088FEFF20C4EBC4010B4A02EB81010874B0
:1017E000C4EBC40102EB810188764FF6FF70C4EBB5
:1017F000C40102EB81010883204601F017FC0020A0
:10180000024941F8240010BD542800203828002047
:10181000014605484056012202EBE07008B1012064
:1018200070470020FCE70000B8290020014604486A
:101830004056082801DB012070470020FCE700002B
:10184000B8290020014606484056002805DB044818
:101850004056082801DA012070470020FCE700000C
:10186000B8290020FF2201490A547047B8290020F6
:1018700070B548DF044600BF25463DB100BF04A255
:1018800040F291212846FBF788FD00BF00BF70BDE4
:101890002E2E5C2E2E5C2E2E5C6D61696E2E6300EA
:1018A000014600BF0748007800F0040008B908208E
:1018B000704700BF09B90E20FAE703484078086076
:1018C0000020F5E794210020E02900207CB50346A4
:1018D00000BF2548007800F0040008B908207CBD4E
:1018E00000BF0BB90E20FAE70AB90E20F7E7186817
:1018F000022806D2186800EB40001C4C54F8200067
:1019000008B90720EBE7D3E90004CDE9000401980A
:101910001C6804EB4404154D05EB8404248901FB89
:1019200004000190009800EB40002C4604EB80007E
:101930004068009C04EB440405EB84046489009D2A
:1019400005EB4505094E06EB85052D8904FB0500D1
:10195000019CA04201D80720C1E7DDE90004C2E9EB
:1019600000040020BBE7000094210020AC2A0020E6
:101970002DE9F84304460D4600BF4348007800F0C7
:10198000040010B90820BDE8F88300BF0CB90E2090
:10199000F9E72068022806D2206800EB40003B49A6
:1019A00051F8200008B90720EDE7206800EB40005F
:1019B000364901EB80004068216801EB4101334A60
:1019C00002EB81014989226802EB42022F4B03EBB3
:1019D0008202128901FB02006168884201D8072057
:1019E000D1E76068FEF7F4FD08B91020CBE7D4E931
:1019F000001001EB4101254A02EB81014968401AC0
:101A0000216801EB410102EB81010989B0FBF1F290
:101A100001FB120008B10720B5E7206800EB400089
:101A20001A4901EB8000008995FBF0F100FB115091
:101A300000B90DB90720A6E7206800EB4000134964
:101A400001EB80000089216801EB41010F4A02EBA4
:101A50008101498900FB01F660684719206800EBA5
:101A60004000114601EB8000406800EB0608474546
:101A700001D9072087E700202B4602462146009027
:101A80000320FCF767FF7EE794210020AC2A0020AA
:101A900010B54FF010204469601C20B100F007F829
:101AA000B4FBF0F010BD4FF080504069FAE74FF002
:101AB0008050006980B2704710B5FCF799FF002094
:101AC00019490880FFF7E4FFC41EFFF7F0FF444305
:101AD0001648046000201649086000BF10E000218D
:101AE00000EB4002134B43F8221000EB400203EBE3
:101AF0008202118100EB400203EB82025181401C03
:101B00000228ECD300200C4908700C4908600C49ED
:101B100008600C4908600A48006840F00400084961
:101B20000860002010BD00007021002074210020FA
:101B300084210020AC2A0020782100208821002068
:101B4000942100208C210020F8B507460C4615464C
:101B50001E4600BF3748007800F0040008B908208E
:101B6000F8BD00BF0CB90E20FAE70FB90E20F7E759
:101B70002068022806D2206800EB40002E4951F868
:101B8000200008B90720EBE7206800EB40002A4955
:101B900001EB80004068216801EB4101264A02EB1D
:101BA00081014989226802EB4202234B03EB820246
:101BB000128901FB02006168884201D80720CFE743
:101BC00045B1206800EB40001B4901EB8000008913
:101BD000A84201DA0720C3E7A819216801EB4101F7
:101BE000154A02EB81010989884201DD0720B7E728
:101BF0003846FEF7EDFC38B13046FEF7E9FC18B187
:101C00006068FEF7E5FC08B91020A9E76068811953
:101C10002A463846FAF74CFC0095206800EB400055
:101C2000054951F820C03B46002202212046E047EA
:101C3000002095E794210020AC2A00202DE9F041F6
:101C400004460D4600BF3D48007800F0040010B97E
:101C50000820BDE8F08100BF0CB90E20F9E70DB9EE
:101C60000E20F6E7206808B90E20F2E7FFF71FFF05
:101C7000A188884202DBA088102801DA0720E8E763
:101C8000E08868B1FFF704FF471EFFF710FF4743E6
:101C9000E088A1882A4A126800FB0120874201D20D
:101CA0000720D6E7207900F0030008B10720D0E72D
:101CB00024480088022801D10420CAE7214800886E
:101CC00028601F48006868601E49098801EB4101CF
:101CD0001D4A02EB8101686848601A49098801EBD6
:101CE0004101206842F82100A0881649098801EBCB
:101CF000410102EB81010881E0881249098801EB6A
:101D0000410102EB81014881FFF7D1FEA188E28801
:101D100001FB02077F1EFFF7CAFE97FBF0F6FFF7F5
:101D2000C6FE0749096806FB00100549086005481A
:101D30000088401C0349088000208AE79421002085
:101D40007421002070210020AC2A0020F8B5044640
:101D50000E4615461F4600BF3148007800F00400CB
:101D600008B90820F8BD00BF0EB90E20FAE70CB97B
:101D70000E20F7E72068022806D2206800EB40001A
:101D8000284951F8200008B90720EBE7206800EB4C
:101D90004000244901EB80004068216801EB4101CB
:101DA000204A02EB81014989226802EB42021D4B65
